S00F000057696E646572322E737265637A
S11300000C94B5000C94D2000C94D2000C94D20041
S11300100C94D2000C94D2000C94D2000C94D20014
S11300200C94D2000C943A010C94D2000C94D2009B
S11300300C94D2000C94D2000C94D2000C94D200F4
S11300400C94D2000C94D2000C94D2000C94D200E4
S11300500C94D2000C94D2000C94D2000C94D200D4
S11300600C94D2000C94D2006E616E00696E66002E
S113007000407A10F35A00A0724E18090010A5D45B
S1130080E80000E87648170000E40B54020000CAB8
S11300909A3B000000E1F5050000809698000000FE
S11300A040420F000000A08601000000102700005D
S11300B00000E803000000006400000000000A00E3
S11300C0000000000100000000002C76D888DC67E6
S11300D04F0823DFC1DFAE59E1B1B796E5E3E4533E
S11300E0C63AE651997696E8E6C28426EB898C9B5B
S11300F062ED407C6FFCEFBC9C9F40F2BAA56FA5FB
S1130100F490055A2AF75C936B6CF9676DC11BFC7C
S1130110E0E40D47FEF520E6B500D0ED902E030097
S1130120943577050080841E080000204E0A0000E4
S113013000C80C333333330F986E12831141EF8DA3
S11301402114893BE65516CFFEE6DB18D1844B38E3
S11301501BF77C1D901DA4BBE424203284725E2214
S11301608100C9F124ECA1E53D2711241FBECFEF86
S1130170D8E0DEBFCDBF11E0A0E0B1E0E6E1F8E1F8
S113018002C005900D92AE38B107D9F711E0AEE880
S1130190B1E001C01D92A43CB107E1F70E9405053E
S11301A00C94090C0C940000806480937C0085E31B
S11301B08A95F1F7EAE7F0E08081806480838081AA
S11301C084FFFDCFEAE7F0E08081806180832091A5
S11301D0780030917900822F932F08951092B60001
S11301E01092B00084E08093B1001092B20010929B
S11301F0B3001092B40081E08093700008951092CF
S1130200B6001092B0001092B1001092B200109299
S1130210B3001092B40010927000089580E00E9420
S1130220D40023E0893E920704F5823391051CF43F
S113023020E030E01CC08A3F91051CF421E030E04E
S113024016C021E0823C92071CF422E030E00FC08B
S113025022E08A3892071CF423E030E008C082557B
S113026093401CF424E030E002C025E030E0822F0B
S1130270932F08951F920F920FB60F9211248F930C
S11302809F9380918E0190918F01019690938F019D
S113029080938E019F918F910F900FBE0F901F90AE
S11302A01895282F662331F0EBE2F0E0808181601D
S11302B0808305C0EBE2F0E080818E7F808322237F
S11302C034F4EBE2F0E080818068808305C0EBE2E7
S11302D0F0E080818F778083922F26FF06C0EBE2C7
S11302E0F0E080818064808305C0EBE2F0E08081EF
S11302F08F7B808395FF06C0EBE2F0E08081806213
S1130300808305C0EBE2F0E080818F7D808394FFE1
S113031006C0EBE2F0E080818061808305C0EBE2FF
S1130320F0E080818F7E808300C0EBE2F0E080818A
S11303308460808382E08A95F1F700C080818B7F9E
S1130340808393FF04C080818068808305C0EBE2D2
S1130350F0E080818F77808392FF06C0EBE2F0E0CB
S113036080818064808305C0EBE2F0E080818F7B34
S1130370808391FF06C0EBE2F0E08081806280839D
S113038005C0EBE2F0E080818F7D808390FF06C0A2
S1130390EBE2F0E080818061808305C0EBE2F0E075
S11303A080818F7E808300C0EBE2F0E080818460F6
S11303B0808392E09A95F1F700C080818B7F8083DF
S11303C08081806880838081806480838081806272
S11303D08083808180618083662349F4243038F4EB
S11303E08FE999E10197F1F700C00000089595EDB8
S11303F09A95F1F70000089561E00E945101089573
S1130400CF93DF93FC018081882339F0EF010E94B0
S1130410FC01898121968823D1F7DF91CF9108953A
S113042060E00E945101089581E00E941002089545
S113043080580E94100208950F931F938B010E940D
S11304401802C8010E9400021F910F9108952F9273
S11304503F924F925F926F927F928F929F92AF9250
S1130460BF92DF92EF92FF920F931F93CF93DF938C
S11304701092C20181E0EE24E39400E0FF24C0E97D
S1130480D1E00F2EF1E16F2EF1E07F2EF02D0F2E33
S1130490F0E24F2EF1E05F2EF02D0F2EFAE22F2E18
S11304A0F1E03F2EF02D0F2EF2E0AF2EF1E0BF2E43
S11304B0F02D0F2EF0E08F2EF1E09F2EF02DDD2495
S11304C0D39410E001C0812F882309F480C10E94D5
S11304D014028091C201882359F480E090E0B401B1
S11304E00E941C0280E490E0B5010E941C020AC034
S11304F080E090E0B5010E941C0280E490E0B40129
S11305000E941C028091C301813009F460C08130D3
S113051038F0823009F4B0C0833009F058C101C109
S11305208DB79EB708970FB6F8949EBF0FBE8DBFC8
S1130530EDB7FEB73196D183C08384E091E0938315
S113054082838091820190918301A0918401B09172
S1130550850184839583A683B7830E94870B8DB717
S11305609EB708960FB6F8949EBF0FBE8DBF81E06C
S113057090E0BE010E941C028DB79EB708970FB68B
S1130580F8949EBF0FBE8DBFEDB7FEB73196D183F1
S1130590C0837382628280917A0190917B01A091E1
S11305A07C01B0917D0184839583A683B7830E94E7
S11305B0870B8DB79EB708960FB6F8949EBF0FBEF3
S11305C08DBF81E490E0BE010E941C0200C18DB782
S11305D09EB708970FB6F8949EBF0FBE8DBFEDB7B8
S11305E0FEB73196D183C0837382628280917A018F
S11305F090917B01A0917C01B0917D0184839583CE
S1130600A683B7830E94870B8DB79EB708960FB653
S1130610F8949EBF0FBE8DBF81E090E0BE010E94A2
S11306201C028DB79EB708970FB6F8949EBF0FBEF5
S11306308DBFEDB7FEB73196D183C083538242821A
S113064080917E0190917F01A0918001B091810100
S113065084839583A683B7830E94870B8DB79EB747
S113066008960FB6F8949EBF0FBE8DBF81E490E04C
S1130670BE010E941C02ABC08DB79EB708970FB68F
S1130680F8949EBF0FBE8DBFEDB7FEB73196D183F0
S1130690C0835382428280917E0190917F01A09118
S11306A08001B091810184839583A683B7830E94DE
S11306B0870B8DB79EB708960FB6F8949EBF0FBEF2
S11306C08DBF81E090E0BE010E941C028DB79EB7F1
S11306D008970FB6F8949EBF0FBE8DBFEDB7FEB757
S11306E03196D183C0833382228280918601909196
S11306F08701A0918801B091890184839583A683A1
S1130700B7830E94870B8DB79EB708960FB6F894EF
S11307109EBF0FBE8DBF81E490E0BE010E941C020B
S113072056C08DB79EB708970FB6F8949EBF0FBEFC
S11307308DBFEDB7FEB73196D183C0833382228259
S11307408091860190918701A0918801B0918901DF
S113075084839583A683B7830E94870B8DB79EB746
S113076008960FB6F8949EBF0FBE8DBF81E090E04F
S1130770BE010E941C028DB79EB708970FB6F8946D
S11307809EBF0FBE8DBFEDB7FEB73196D183C08338
S113079087E391E09383828380918A0190918B0116
S11307A0A0918C01B0918D0184839583A683B78336
S11307B00E94870B8DB79EB708960FB6F8949EBF1C
S11307C00FBE8DBF81E490E0BE010E941C020E9416
S11307D00E0180937901853051F0EE2059F010928A
S11307E08F0110928E010E94EE00E12E03C00E9440
S11307F0FF00ED2C80918E0190918F018C529140DD
S113080028F4FF2041F40D2DFD2C05C010928F011A
S113081010928E01F12E90917901923099F4002377
S113082089F08091C201882321F4D092C2018D2DD8
S113083039C08091C3018330B8F58F5F8093C301C1
S11308408D2D33C09130A9F4002309F43CCE80915E
S1130850C201813029F41093C2018D2D012F34CEB1
S11308608091C3018823E9F081508093C3018D2DC9
S113087019C0812F943009F027CE0E94FF00DF9128
S1130880CF911F910F91FF90EF90DF90BF90AF90A9
S11308909F908F907F906F905F904F903F902F909C
S11308A00895812F012F10CE812F012FE3CF0E94B5
S11308B0140280E090E066E471E00E941C02089556
S11308C0EAE2F0E0808184608083808181608083BB
S11308D0808180688083808180648083808180625D
S11308E08083808180618083EBE2F0E080818B7F74
S11308F0808380818E7F80838081806880838081F3
S11309008064808380818062808380818061808331
S11309108FE59AEE0197F1F700C0000080818F7790
S1130920808380818F7B808300C08081846080830A
S113093092E09A95F1F700C080818B7F80838FE0ED
S113094090E40197F1F700C0000080818460808307
S113095092E09A95F1F700C080818B7F80838FE8C5
S113096091E00197F1F700C00000808184608083EA
S113097092E09A95F1F700C080818B7F808385EDAA
S11309808A95F1F7000080818F7E808300C080818A
S11309908460808392E09A95F1F700C080818B7F18
S11309A0808385ED8A95F1F7000080818F7E8083B6
S11309B000C080818460808392E09A95F1F700C042
S11309C080818B7F808382E08A95F1F700C08081EB
S11309D08068808300C080818460808392E09A95DF
S11309E0F1F700C080818B7F808385ED8A95F1F7D4
S11309F0000088E00E9410020E94140286E00E9417
S1130A0010028CE00E94100208954F925F926F9240
S1130A107F928F929F92AF92BF92CF92DF92EF928A
S1130A20FF920F931F93CF93DF9314B815B817B8A1
S1130A3018B8AAE2B0E01C921BB814BC15BC16BCD2
S1130A4017BC18BC1092800010928100109285008F
S1130A5010928400109287001092860010928900F0
S1130A601092880010928B0010928A001092B600A7
S1130A701092B0001092B1001092B2001092B30024
S1130A801092B40010926E0010926F0010927000D9
S1130A90109269001DBA109268001092C10080E89B
S1130AA080BFEBE7F0E0108210927F0010927E008E
S1130AB080E480937C0084E880937A0010821CBCDC
S1130AC01092BC008FEF8C930E9460040E94140269
S1130AD08CE491E00E94000280E49CE90197F1F724
S1130AE00E941402C0E0D1E080E090E0BE010E94C8
S1130AF01C0281E090E06DE571E00E941C0281E43B
S1130B0090E063E671E00E941C0210E000E00F2E0A
S1130B10F0E4EF2EFCE9FF2EF02DDD24D3940F2E0C
S1130B20F2E0AF2EF1E0BF2EF02D01C01D2D0E948A
S1130B300E0180937901853009F4102FF701319764
S1130B40F1F78530A1F3112391F7823081F480917C
S1130B50C201813061F0D092C20180E090E0B50121
S1130B600E941C0280E490E0BE010E941C0280915D
S1130B707901813081F48091C201882361F000936E
S1130B80C20180E090E0BE010E941C0280E490E07B
S1130B90B5010E941C0280917901882311F08430F0
S1130BA029F68091C201882369F40E94570420EA3F
S1130BB03FE040E951E0CA010197F1F7215030408C
S1130BC0D1F702C00E942702C0E9D1E00CE611E08F
S1130BD066247724689462F80F2EF3E04F2E552490
S1130BE0F02D0F2EF5E0CF2EDD24F02DAA24BB240A
S1130BF0A39488249924689481F80F2EF0E2EF2EB0
S1130C00FEE4FF2EF02D0E9414020E940E01823099
S1130C10910509F459C08330910534F4009779F0B3
S1130C20019709F095C039C08430910509F463C077
S1130C3084309105DCF0059709F08AC073C000D0B8
S1130C4000D000D0EDB7FEB73196D183C0831383B3
S1130C500283158214820E94870B8DB79EB7069675
S1130C600FB6F8949EBF0FBE8DBF72C000D000D0E7
S1130C7000D0EDB7FEB73196D183C08313830283CE
S1130C80558244820E94870B8DB79EB706960FB695
S1130C90F8949EBF0FBE8DBF5BC000D000D000D0C3
S1130CA0EDB7FEB73196D183C08313830283B58237
S1130CB0A4820E94870B8DB79EB706960FB6F89450
S1130CC09EBF0FBE8DBF44C000D000D000D0EDB792
S1130CD0FEB73196D183C0831383028395828482C5
S1130CE00E94870B8DB79EB706960FB6F8949EBFE9
S1130CF00FBE8DBF2DC000D000D000D0EDB7FEB721
S1130D003196D183C08313830283758264820E94E7
S1130D10870B8DB79EB706960FB6F8949EBF0FBE8D
S1130D208DBF16C000D000D000D0EDB7FEB731960D
S1130D30D183C08313830283D582C4820E94870B2C
S1130D408DB79EB706960FB6F8949EBF0FBE8DBFA3
S1130D50CE010E940002C7010197F1F754CFA1E12F
S1130D60B0E0E5EBF6E00C94360A3C017F876E8731
S1130D706A01FC0117821682838181FD03C06FEF33
S1130D807FEF6FC39E012F5F3F4F398B288BF30199
S1130D902381EE85FF8523FD859123FF8191FF87C4
S1130DA0EE87882309F45AC3853251F4EE85FF8512
S1130DB023FD859123FF8191FF87EE87853229F4F6
S1130DC090E0B3010E945B0BE2CF982F10E08824DF
S1130DD099241032B0F49B3269F09C3228F490329A
S1130DE051F0933271F40BC09D3239F0903349F4D1
S1130DF0116028C01260146025C0186023C01061FF
S1130E0021C017FD2AC0892F80538A3078F416FF39
S1130E1006C0FAE09F9E902C1124980E13C03AE06D
S1130E20839E802C1124880E10620CC09E3221F403
S1130E3016FD14C3106406C09C3611F4106802C079
S1130E40983659F4EE85FF8523FD959123FF919102
S1130E50FF87EE87992309F0BCCF892F855483300F
S1130E6020F4812F8061905E07C0892F85568330DE
S1130E7008F09FC1812F8F7E86FD02C076E0972EF9
S1130E806FE3F62EF822953619F4F0E4FF2A07C032
S1130E90963619F420E8F22A02C091109A94F7FECB
S1130EA00AC03BE3391518F45CE3B52E02C0B92C33
S1130EB0B39427E009C047E0491520F4BB2447E078
S1130EC0942EF7CF292DBB24C60104969D878C87C9
S1130ED0F6016081718182819381AE014F5F5F4F22
S1130EE00B2D0E946D0A6C010981202E332400FF12
S1130EF004C003FD02C01DE209C0F1FE02C01BE2F2
S1130F0005C0F2FC02C010E001C010E2C1018C7007
S1130F109070892BB9F1112311F483E001C084E0AE
S1130F20881510F088240AC0881AF3FC07C080E2F0
S1130F3090E0B3010E945B0B8A94C9F7112329F056
S1130F40812F90E0B3010E945B0B23FE03C008E6EF
S1130F5010E00EC00CE610E00BC0E114F10409F03F
S1130F60805290E0B3010E945B0B0F5F1F4F05C0DE
S1130F70EF2CFF24F0E1EF22FF24F8018491882371
S1130F8061F714C1F7FE12C0BC0C24FE04C08A81B0
S1130F90813309F4BA941B141CF0BB24B3942DC000
S1130FA0F8E0FB1550F538E0B32E27C0F6FC25C059
S1130FB0892D90E08C159D054CF02CEFC2162FEF77
S1130FC0D20624F030E8F32A01C09A94992049F01B
S1130FD0E2E0F0E0EC0FFD1FE90DF11D80818033AC
S1130FE0A1F3F7FE0AC0B92CB394892D90E0C8167A
S1130FF0D90614F0992401C09C18F7FC03C025E01D
S113100030E009C01C141D041CF021E030E003C0D2
S113101096012F5F3F4F112311F02F5F3F4F99200F
S113102029F0892D90E00196280F391F882D90E032
S11310302817390714F0882401C0821A4F2C55242C
S1131040C20189709070892B39F008C080E290E069
S1131050B3010E945B0B8A948820C1F7112329F005
S1131060812F90E0B3010E945B0B43FE07C008C0D0
S113107080E390E0B3010E945B0B8A948820C1F75F
S1131080F7FE46C08601D7FE02C000E010E07601FC
S11310900894E11CF11CE01AF10A41E050E04C0F05
S11310A05D1FE40EF51E26014B185108892D90E0B2
S11310B0AA24BB24A81AB90A5FEF0F3F150729F425
S11310C08EE290E0B3010E945B0BC016D10634F0AF
S11310D0401651061CF4F701808101C080E30150E1
S11310E010400894E11CF11C0A151B052CF090E03B
S11310F0B3010E945B0BE0CF0C151D0539F49A81F6
S1131100963318F4953311F424FE81E390E04BC038
S11311108A81813309F00F7E90E0B3010E945B0B5A
S11311209920A1F08EE290E0B3010E945B0B12E0E3
S1131130E1E0F0E0EC0FFD1FE10FF11D1F5F808186
S113114090E0B3010E945B0B9A9491F744FC03C0B6
S113115085E690E002C085E490E0B3010E945B0B59
S1131160D7FC05C0C114D10441F404FF06C0D094D7
S1131170C194D108D3948DE201C08BE290E0B30115
S11311800E945B0B80E305C08F5F26EF3FEFC20E2A
S1131190D31E3AE0C316D104BCF790E0B3010E9419
S11311A05B0BC601C096B3010E945B0BCC84DD844B
S11311B052C1933631F0933799F0933509F059C001
S11311C023C0F601808189835E010894A11CB11CAF
S11311D022E030E0C20ED31E21E0E22EF12C12C038
S11311E0F601A080B18016FD03C06FEF7FEF02C04F
S11311F0692D70E022E030E0C20ED31EC5010E94CA
S1131200500B7C011F7713C0F601A080B18016FD3E
S113121003C06FEF7FEF02C0692D70E022E030E081
S1131220C20ED31EC5010E94450B7C01106813FF3A
S113123007C01BC080E290E0B3010E945B0B8A945C
S1131240882D90E0E816F906A8F30FC0F50117FD04
S1131250859117FF81915F0190E0B3010E945B0BC0
S113126081108A940894E108F108E114F10471F7FB
S1131270F2C0943611F0993689F517FF08C0F601CB
S1131280208131814281538184E090E00AC0F601DB
S1131290808191819C01442737FD4095542F82E041
S11312A090E0C80ED91E9FE6F92EF12257FF09C01F
S11312B050954095309521953F4F4F4F5F4F90E8A3
S11312C0F92ACA01B901AE014F5F5F4F2AE030E04D
S11312D00E94AB0BE82EE889EE1A41C0953721F441
S11312E01F7E2AE030E01CC0197F9F3661F09037E2
S11312F020F4983509F0B2C00FC0903739F0983710
S113130009F0ACC004C028E030E00AC0106114FD4C
S1131310146020E130E004C014FD166020E132E0E6
S113132017FF08C0F601608171818281938144E0D6
S113133050E008C0F60180819181BC0180E090E01A
S113134042E050E0C40ED51EAE014F5F5F4F0E94D5
S1131350AB0BE82E5889E51A8FE7F82EF122F6FE3A
S11313600BC08EEFF822E91438F4F4FE07C0F2FC47
S113137005C09FEEF92202C01E2D01C0192DF4FEF6
S11313800DC0FE01EE0DF11D8081803319F4E9EEEC
S1131390FE2208C01F5FF2FE05C003C08F2D8678B1
S11313A009F01F5F0F2DF3FC14C0F0FE0FC01815D9
S11313B010F09E2C0BC09E2C980C911A182D06C070
S11313C080E290E0B3010E945B0B1F5F1815C0F32D
S11313D004C0181510F4811A01C0882404FF0FC03A
S11313E080E390E0B3010E945B0B02FF1DC001FD8E
S11313F003C088E790E00EC088E590E00BC0802F22
S1131400867891F001FF02C08BE201C080E2F7FC14
S11314108DE290E0B3010E945B0B06C080E390E094
S1131420B3010E945B0B9A94E914C0F3EA94E1E0DF
S1131430F0E0EC0FFD1FEE0DF11D808190E0B30193
S11314400E945B0BEE2091F706C080E290E0B301AE
S11314500E945B0B8A948820C1F799CCF3016681C2
S11314607781CB016196E2E10C94520A2F923F926C
S11314704F925F926F927F928F929F92AF92BF92A0
S1131480CF92DF92EF92FF920F931F93CF93DF934C
S1131490CDB7DEB7CA1BDB0B0FB6F894DEBF0FBEA9
S11314A0CDBF09942A88398848885F846E847D84F6
S11314B08C849B84AA84B984C884DF80EE80FD80F8
S11314C00C811B81AA81B981CE0FD11D0FB6F8946E
S11314D0DEBF0FBECDBFED010895283008F027E030
S11314E03327DA01990F311D87FD9160009661055C
S11314F0710539F432602E5F3D9330E32A95E1F7AC
S113150008959F3F30F080387105610509F03C5F14
S11315103C5F3D93913008F08068911DDF93CF9339
S11315201F930F93FF92EF92192F987F9695E92FAF
S113153096959695E90FFF27E653FF4F9927332792
S1131540EE24FF24A701E70105900894079428F4EA
S1131550360FE71EF81E491F511D660F771F881F9F
S1131560991F0694A1F70590079428F4E70EF81E36
S1131570491F561FC11D770F881F991F661F0694A8
S1131580A1F70590079428F4F80E491F561FC71FAA
S1131590D11D880F991F661F771F0694A1F7059028
S11315A0079420F4490F561FC71FD81F990F661FB1
S11315B0771F881F0694A9F784911095177041F03E
S11315C0D695C79557954795F794E7941A95C1F71B
S11315D0E0E7F0E068941590159135916591959147
S11315E005907FE27395E118F10A430B560BC90B82
S11315F0D009C0F7E10CF11E431F561FC91FD01DAF
S11316007EF4703311F48A95E6CFE894015030F0FB
S1131610080F0AF40027021708F4202F2395022F3D
S11316207A3328F079E37D932A95E9F710C07D9306
S11316302A9589F606949795679537951795179483
S1131640E118F10A430B560BC90BD00998F0239506
S11316507E9173957A3308F070E37C932013B8F786
S11316607E9170617D9330F0839571E37D9370E397
S11316702A95E1F71124EF90FF900F911F91CF91DC
S1131680DF91992787FD90950895FC01059061509D
S113169070400110D8F7809590958E0F9F1F089584
S11316A0FC016150704001900110D8F7809590952D
S11316B08E0F9F1F08950F931F93CF93DF938C0179
S11316C0EB018B8181FF1BC082FF0DC02E813F8106
S11316D08C819D812817390764F4E881F98101938D
S11316E0F983E88306C0E885F985802F0995892B5D
S11316F031F48E819F8101969F838E8302C00FEF08
S11317001FEFC801DF91CF911F910F910895AEE0B3
S1131710B0E0EDE8FBE00C94440A0D891E8986E0F4
S11317208C831A8309838FEF9FE79E838D839E01A9
S1131730275E3F4FCE0101966F89788DA9010E94E3
S1131740AF062F813885020F131FF80110822E96E1
S1131750E4E00C94600AFA01AA27283051F1203100
S113176081F1E8946F936E7F6E5F7F4F8F4F9F4F31
S1131770AF4FB1E03ED0B4E03CD0670F781F891F73
S11317809A1FA11D680F791F8A1F911DA11D6A0F41
S1131790711D811D911DA11D20D009F468943F91F4
S11317A02AE0269F11243019305D3193DEF6CF01F3
S11317B00895462F4770405D4193B3E00FD0C9F7B9
S11317C0F6CF462F4F70405D4A3318F0495D31FD26
S11317D04052419302D0A9F7EACFB4E0A695979579
S11317E0879577956795BA95C9F70097610571054F
S11317F008959B01AC010A2E069457954795379599
S11318002795BA95C9F7620F731F841F951FA01DF2
S10918100895F894FFCFD7
S11318163E002000442E6669723D252E34666D6DA9
S1131826004C756E672E626F623D256C756D6D009A
S11318364E722E73703D256C7500436F65662E647B
S1131846703D252E3266004E72426F62696E2F73AA
S11318563D252E31660073746172740057696E6497
S113186665724D616368696E65562E320053746104
S113187672740053657474696E6773004275746F8D
S11318866E756C203D20256400052C010000B41102
S1111896000052499D3A0000803F0000003FD0
S9030000FC
