:100000000C94B5000C94D2000C94D2000C94D20045
:100010000C94D2000C94D2000C94D2000C94D20018
:100020000C94D2000C94D2000C94D2000C94D20008
:100030000C94D2000C94D2000C94D2000C94D200F8
:100040000C94D2000C94D2000C94D2000C94D200E8
:100050000C94D2000C94D2000C94D2000C94D200D8
:100060000C94D2000C94D2006E616E00696E660032
:1000700000407A10F35A00A0724E18090010A5D45F
:10008000E80000E87648170000E40B54020000CABC
:100090009A3B000000E1F505000080969800000002
:1000A00040420F000000A086010000001027000061
:1000B0000000E803000000006400000000000A00E7
:1000C000000000000100000000002C76D888DC67EA
:1000D0004F0823DFC1DFAE59E1B1B796E5E3E45342
:1000E000C63AE651997696E8E6C28426EB898C9B5F
:1000F00062ED407C6FFCEFBC9C9F40F2BAA56FA5FF
:10010000F490055A2AF75C936B6CF9676DC11BFC80
:10011000E0E40D47FEF520E6B500D0ED902E03009B
:10012000943577050080841E080000204E0A0000E8
:1001300000C80C333333330F986E12831141EF8DA7
:100140002114893BE65516CFFEE6DB18D1844B38E7
:100150001BF77C1D901DA4BBE424203284725E2218
:100160008100C9F124ECA1E53D2711241FBECFEF8A
:10017000D8E0DEBFCDBF11E0A0E0B1E0E4E9FBE1F3
:1001800002C005900D92A039B107D9F711E0A0E99E
:10019000B1E001C01D92A43CB107E1F70E949502B5
:1001A0000C94C80D0C940000806480937C0085E35F
:1001B0008A95F1F7EAE7F0E08081806480838081AE
:1001C00084FFFDCFEAE7F0E08081806180832091A9
:1001D000780030917900822F932F089580E00E945B
:1001E000D40023E0893E920704F5823391051CF484
:1001F00020E030E01CC08A3F91051CF421E030E093
:1002000016C021E0823C92071CF422E030E00FC0CF
:1002100022E08A3892071CF423E030E008C08255BF
:1002200093401CF424E030E002C025E030E0822F4F
:10023000932F0895282F662331F0EBE2F0E08081C0
:100240008160808305C0EBE2F0E080818E7F808357
:10025000222334F4EBE2F0E080818068808305C0E3
:10026000EBE2F0E080818F778083922F26FF06C03B
:10027000EBE2F0E080818064808305C0EBE2F0E097
:1002800080818F7B808395FF06C0EBE2F0E0808168
:100290008062808305C0EBE2F0E080818F7D808307
:1002A00094FF06C0EBE2F0E080818061808305C0AE
:1002B000EBE2F0E080818F7E808300C0EBE2F0E033
:1002C00080818460808382E08A95F1F700C080811C
:1002D0008B7F808393FF04C080818068808305C00A
:1002E000EBE2F0E080818F77808392FF06C0EBE243
:1002F000F0E080818064808305C0EBE2F0E08081E3
:100300008F7B808391FF06C0EBE2F0E0808180620A
:10031000808305C0EBE2F0E080818F7D808390FFD9
:1003200006C0EBE2F0E080818061808305C0EBE2F3
:10033000F0E080818F7E808300C0EBE2F0E080817E
:100340008460808392E09A95F1F700C080818B7F72
:1003500080838081806880838081806480838081C5
:1003600080628083808180618083662349F42430A9
:1003700038F48FE999E10197F1F700C00000089582
:1003800095ED9A95F1F70000089561E00E941A0139
:100390000895CF93DF93FC018081882339F0EF012A
:1003A0000E94C501898121968823D1F7DF91CF91E1
:1003B000089560E00E941A01089581E00E94D90129
:1003C000089580580E94D90108950F931F938B01BF
:1003D0000E94E101C8010E94C9011F910F91089577
:1003E000EAE2F0E0808184608083808181608083A4
:1003F0008081806880838081806480838081806246
:100400008083808180618083EBE2F0E080818B7F5C
:10041000808380818E7F80838081806880838081DB
:10042000806480838081806280838081806180831A
:100430008FE59AEE0197F1F700C0000080818F7779
:10044000808380818F7B808300C0808184608083F3
:1004500092E09A95F1F700C080818B7F80838FE0D6
:1004600090E40197F1F700C00000808184608083F0
:1004700092E09A95F1F700C080818B7F80838FE8AE
:1004800091E00197F1F700C00000808184608083D3
:1004900092E09A95F1F700C080818B7F808385ED93
:1004A0008A95F1F7000080818F7E808300C0808173
:1004B0008460808392E09A95F1F700C080818B7F01
:1004C000808385ED8A95F1F7000080818F7E80839F
:1004D00000C080818460808392E09A95F1F700C02B
:1004E00080818B7F808382E08A95F1F700C08081D4
:1004F0008068808300C080818460808392E09A95C8
:10050000F1F700C080818B7F808385ED8A95F1F7BC
:10051000000088E00E94D9010E94DD0186E00E946F
:10052000D9018CE00E94D90108952F923F924F92F9
:100530005F926F927F928F929F92AF92BF92CF9273
:10054000DF92EF92FF920F931F93DF93CF930F925F
:10055000CDB7DEB714B815B817B818B8AAE2B0E02E
:100560001C921BB814BC15BC16BC17BC18BC10924E
:1005700080001092810010928500109284001092E9
:1005800087001092860010928900109288001092C5
:100590008B0010928A001092B6001092B000109258
:1005A000B1001092B2001092B3001092B4001092F9
:1005B0006E0010926F0010927000109269001DBAC8
:1005C000109268001092C10080E880BFEBE7F0E075
:1005D000108210927F0010927E0080E480937C0055
:1005E00084E880937A0010821CBC1092BC008FEFCC
:1005F0008C930E94F0010E94DD0180E091E00E9456
:10060000C90180E49CE90197F1F70E94DD010F2EFA
:10061000F1E1EF2EF1E0FF2EF02D80E090E0B70148
:100620000E94E50182E090E063E171E00E94E50153
:1006300082E490E069E171E00E94E50110E000E0F1
:100640000F2EF0E48F2EFCE99F2EF02DDD24D394A5
:100650000F2EF2E2AF2EF1E0BF2EF02D01C01D2DC6
:100660000E94EE0080937B01853009F4102FF40185
:100670003197F1F78530A1F3112391F7823081F49E
:100680008091C201813061F0D092C20180E090E09F
:10069000B5010E94E50180E490E0B7010E94E50108
:1006A00080917B01813081F48091C201882361F0C7
:1006B0000093C20180E090E0B7010E94E50180E470
:1006C00090E0B5010E94E50180917B01882311F043
:1006D000843029F68091C201882399F40E94DD01BB
:1006E00080E090E064E271E00E94E50120EA3FE0F2
:1006F00040E951E0CA010197F1F721503040D1F7AC
:100700005CC31092C20111E00F2EF7E3CF2EF1E08F
:10071000DF2EF02D0F2EF6E4AF2EF1E0BF2EF02DE0
:100720000F2EFAE28F2EF1E09F2EF02D0F2EF0E526
:100730006F2EF1E07F2EF02D0F2EFFE54F2EF1E012
:100740005F2EF02D0F2EF2E22F2EF1E03F2EF02D36
:1007500001E01982112309F4DEC00E94DD018091BD
:10076000C201882359F480E090E0B7010E94E501BE
:1007700080E490E0B1010E94E5010AC080E090E0D1
:10078000B1010E94E50180E490E0B7010E94E5011B
:100790008091C301813009F464C0813038F0823027
:1007A00009F4BBC0833009F0B6C012C18DB79EB743
:1007B00008970FB6F8949EBF0FBE8DBFEDB7FEB77A
:1007C000319680E991E09183808393828282809147
:1007D000840190918501A0918601B0918701848365
:1007E0009583A683B7830E94460DEDB7FEB7389672
:1007F0000FB6F894FEBF0FBEEDBF82E090E060E957
:1008000071E00E94E5018DB79EB708970FB6F89486
:100810009EBF0FBE8DBFEDB7FEB7319680E991E068
:1008200091838083D382C28280917C0190917D01EB
:10083000A0917E01B0917F0184839583A683B783C5
:100840000E94460DEDB7FEB738960FB6F894FEBF7E
:100850000FBEEDBF82E490E060E971E00E94E50127
:100860005AC08DB79EB708970FB6F8949EBF0FBEBB
:100870008DBFEDB7FEB7319680E991E0918380831B
:10088000D382C28280917C0190917D01A0917E01F2
:10089000B0917F0184839583A683B7830E94460D20
:1008A000EDB7FEB738960FB6F894FEBF0FBEEDBF9A
:1008B00082E090E060E971E00E94E5018DB79EB7AB
:1008C00008970FB6F8949EBF0FBE8DBFEDB7FEB769
:1008D000319680E991E091838083B382A2828091F6
:1008E000800190918101A0918201B0918301848364
:1008F0009583A683B7830E94460DEDB7FEB7389661
:100900000FB6F894FEBF0FBEEDBF82E490E060E941
:1009100071E00E94E501102FB6C08DB79EB7089711
:100920000FB6F8949EBF0FBE8DBFEDB7FEB73196E0
:1009300080E991E091838083B382A28280918001DB
:1009400090918101A0918201B0918301848395836C
:10095000A683B7830E94460DEDB7FEB738960FB653
:10096000F894FEBF0FBEEDBF82E090E060E971E059
:100970000E94E5018DB79EB708970FB6F8949EBF09
:100980000FBE8DBFEDB7FEB7319680E991E0918340
:100990008083738262828091880190918901A09105
:1009A0008A01B0918B0184839583A683B7830E94CB
:1009B000460DEDB7FEB738960FB6F894FEBF0FBEE2
:1009C000EDBF82E490E060E971E00E94E501A3CF11
:1009D0008DB79EB708970FB6F8949EBF0FBE8DBF18
:1009E000EDB7FEB7319680E991E091838083738201
:1009F00062828091880190918901A0918A01B091D1
:100A00008B0184839583A683B7830E94460DEDB73F
:100A1000FEB738960FB6F894FEBF0FBEEDBF82E06A
:100A200090E060E971E00E94E5018DB79EB70897FC
:100A30000FB6F8949EBF0FBE8DBFEDB7FEB73196CF
:100A400080E991E0918380835382428280918C017E
:100A500090918D01A0918E01B0918F018483958337
:100A6000A683B7830E94460DEDB7FEB738960FB642
:100A7000F894FEBF0FBEEDBF82E490E060E971E044
:100A80000E94E50148CF0E94EE0080937B018530F3
:100A900009F41981E0E4FCE93197F1F7853099F325
:100AA000112389F7823011F0102F12C08091C201FA
:100AB000882321F40093C201102F0AC08091C30142
:100AC000833010F010E004C08F5F8093C301102FBB
:100AD00080917B01813081F48091C201813019F4D1
:100AE0001092C20109C08091C301882311F410E063
:100AF00003C081508093C30180917B01882309F05A
:100B0000A9C08091C301882321F58091C201882367
:100B1000D1F460918401709185018091860190915A
:100B2000870127E137EB41ED58E30E94B907609355
:100B30008401709385018093860190938701809151
:100B4000C301882331F48091C201813009F004C2CD
:100B500007C0813009F000C28091C2018823B9F436
:100B600080917C0190917D01A0917E01B0917F01E7
:100B70000196A11DB11D80937C0190937D01A093EE
:100B80007E01B0937F018091C301813031F4809167
:100B9000C201813009F0E3C107C0823009F0DFC132
:100BA0008091C2018823B9F48091800190918101E4
:100BB000A0918201B09183010196A11DB11D809386
:100BC000800190938101A0938201B0938301809171
:100BD000C301823029F48091C2018130D9F506C069
:100BE0008330C1F58091C2018823D1F460918801DE
:100BF0007091890180918A0190918B012AE037EDF3
:100C000043E25CE30E94B907609388017093890115
:100C100080938A0190938B018091C3018330D1F43A
:100C20008091C2018130B1F460918C0170918D018D
:100C300080918E0190918F012AE037ED43E25CE3D1
:100C40000E94B90760938C0170938D0180938E018F
:100C500090938F0180917B01833009F0A9C080912E
:100C6000C301882321F58091C2018823D1F46091CA
:100C7000840170918501809186019091870127E11F
:100C800037EB41ED58E30E94B807609384017093FD
:100C9000850180938601909387018091C301882309
:100CA00031F48091C201813009F05CC107C081300C
:100CB00009F058C18091C2018823B9F480917C0168
:100CC00090917D01A0917E01B0917F010197A109D2
:100CD000B10980937C0190937D01A0937E01B09334
:100CE0007F018091C301813031F48091C201813054
:100CF00009F03BC107C0823009F037C18091C201C1
:100D00008823B9F48091800190918101A0918201A2
:100D1000B09183010197A109B1098093800190935B
:100D20008101A0938201B09383018091C30182303D
:100D300029F48091C2018130D9F506C08330C1F514
:100D40008091C2018823D1F460918801709189015A
:100D500080918A0190918B012AE037ED43E25CE3B8
:100D60000E94B807609388017093890180938A017B
:100D700090938B018091C3018330D1F48091C201A3
:100D80008130B1F460918C0170918D0180918E0160
:100D900090918F012AE037ED43E25CE30E94B807AF
:100DA00060938C0170938D0180938E0190938F01DD
:100DB00080917B01843009F0CDCC0F2EF0E92F2EED
:100DC000F1E03F2EF02D0EE611E0662477246894C2
:100DD00062F80F2EF3E04F2E5524F02D0F2EF5E084
:100DE000CF2EDD24F02DAA24BB24A394882499249B
:100DF000689481F80F2EF0E2EF2EFEE4FF2EF02D26
:100E00000E94DD010E94EE008230910509F459C074
:100E10008330910534F4009779F0019709F095C07B
:100E200039C08430910509F463C084309105DCF049
:100E3000059709F08AC073C000D000D000D0EDB78C
:100E4000FEB7319631822082138302831582148289
:100E50000E94460D8DB79EB706960FB6F8949EBFBA
:100E60000FBE8DBF72C000D000D000D0EDB7FEB76E
:100E700031963182208213830283558244820E94FC
:100E8000460DEDB7FEB736960FB6F894FEBF0FBE0F
:100E9000EDBF5BC000D000D000D0EDB7FEB73196FB
:100EA0003182208213830283B582A4820E94460D80
:100EB0008DB79EB706960FB6F8949EBF0FBE8DBF36
:100EC00044C000D000D000D0EDB7FEB731963182DB
:100ED000208213830283958284820E94460DEDB79F
:100EE000FEB736960FB6F894FEBF0FBEEDBF2DC00D
:100EF00000D000D000D0EDB7FEB73196318220820D
:100F000013830283758264820E94460D8DB79EB75B
:100F100006960FB6F8949EBF0FBE8DBF16C000D0C8
:100F200000D000D0EDB7FEB7319631822082138316
:100F30000283D582C4820E94460DEDB7FEB7369675
:100F40000FB6F894FEBF0FBEEDBFC1010E94C901EC
:100F5000C7010197F1F754CF8091C3011ECE809154
:100F6000C3013ECE8091C301C6CE8091C301E6CEBF
:100F70005058BB27AA270ED077C068D030F06DD06C
:100F800020F031F49F3F11F41EF45DC00EF4E095A3
:100F9000E7FB53C0E92F79D080F3BA1762077307D4
:100FA0008407950718F071F49EF591C00EF4E09552
:100FB0000B2EBA2FA02D0B01B90190010C01CA0113
:100FC000A0011124FF27591B99F0593F50F4503EBE
:100FD00068F11A16F040A22F232F342F4427585FB0
:100FE000F3CF469537952795A795F0405395C9F7C8
:100FF0007EF41F16BA0B620B730B840BBAF0915080
:10100000A1F0FF0FBB1F661F771F881FC2F70EC01E
:10101000BA0F621F731F841F48F4879577956795F1
:10102000B795F7959E3F08F0B3CF9395880F08F0DA
:101030009927EE0F97958795089597F99F6780E810
:1010400070E060E008959FEF80EC089500240A941A
:101050001616170618060906089500240A94121693
:101060001306140605060895092E0394000C11F4C6
:10107000882352F0BB0F40F4BF2B11F460FF04C073
:101080006F5F7F4F8F4F9F4F089557FD9058440FCC
:10109000551F59F05F3F71F04795880F97FB991FD7
:1010A00061F09F3F79F08795089512161306140694
:1010B000551FF2CF4695F1DF08C016161706180621
:1010C000991FF1CF86957105610508940895E894FC
:1010D000BB2766277727CB0197F90895A1E1B0E0F8
:1010E000E4E7F8E00C94F50B3C017F876E876A011A
:1010F000FC0117821682838181FD03C06FEF7FEFB1
:101100006FC39E012F5F3F4F398B288BF3012381E3
:10111000EE85FF8523FD859123FF8191FF87EE8773
:10112000882309F45AC3853251F4EE85FF8523FDE7
:10113000859123FF8191FF87EE87853229F490E026
:10114000B3010E941A0DE2CF982F10E08824992451
:101150001032B0F49B3269F09C3228F4903251F096
:10116000933271F40BC09D3239F0903349F4116021
:1011700028C01260146025C0186023C0106121C00F
:1011800017FD2AC0892F80538A3078F416FF06C0D5
:10119000FAE09F9E902C1124980E13C03AE0839E93
:1011A000802C1124880E10620CC09E3221F416FD92
:1011B00014C3106406C09C3611F4106802C098363F
:1011C00059F4EE85FF8523FD959123FF9191FF87CB
:1011D000EE87992309F0BCCF892F8554833020F402
:1011E000812F8061905E07C0892F8556833008F07B
:1011F0009FC1812F8F7E86FD02C076E0972E6FE320
:10120000F62EF822953619F4F0E4FF2A07C0963638
:1012100019F420E8F22A02C091109A94F7FE0AC04D
:101220003BE3391518F45CE3B52E02C0B92CB39436
:1012300027E009C047E0491520F4BB2447E0942E7D
:10124000F7CF292DBB24C60104969D878C87F60114
:101250006081718182819381AE014F5F5F4F0B2D61
:101260000E942C0C6C010981202E332400FF04C045
:1012700003FD02C01DE209C0F1FE02C01BE205C071
:10128000F2FC02C010E001C010E2C1018C7090704D
:10129000892BB9F1112311F483E001C084E0881592
:1012A00010F088240AC0881AF3FC07C080E290E09E
:1012B000B3010E941A0D8A94C9F7112329F0812FD6
:1012C00090E0B3010E941A0D23FE03C008E610E06F
:1012D0000EC00CE610E00BC0E114F10409F08052DE
:1012E00090E0B3010E941A0D0F5F1F4F05C0EF2C55
:1012F000FF24F0E1EF22FF24F8018491882361F7B5
:1013000014C1F7FE12C0BC0C24FE04C08A818133D4
:1013100009F4BA941B141CF0BB24B3942DC0F8E05C
:10132000FB1550F538E0B32E27C0F6FC25C0892DFB
:1013300090E08C159D054CF02CEFC2162FEFD206D5
:1013400024F030E8F32A01C09A94992049F0E2E0B1
:10135000F0E0EC0FFD1FE90DF11D80818033A1F35A
:10136000F7FE0AC0B92CB394892D90E0C816D906AF
:1013700014F0992401C09C18F7FC03C025E030E06C
:1013800009C01C141D041CF021E030E003C09601CC
:101390002F5F3F4F112311F02F5F3F4F992029F00E
:1013A000892D90E00196280F391F882D90E028178D
:1013B000390714F0882401C0821A4F2C5524C20129
:1013C00089709070892B39F008C080E290E0B301F9
:1013D0000E941A0D8A948820C1F7112329F0812FC9
:1013E00090E0B3010E941A0D43FE07C008C080E3DD
:1013F00090E0B3010E941A0D8A948820C1F7F7FE8D
:1014000046C08601D7FE02C000E010E076010894D5
:10141000E11CF11CE01AF10A41E050E04C0F5D1FA5
:10142000E40EF51E26014B185108892D90E0AA24E0
:10143000BB24A81AB90A5FEF0F3F150729F48EE203
:1014400090E0B3010E941A0DC016D10634F0401688
:1014500051061CF4F701808101C080E30150104067
:101460000894E11CF11C0A151B052CF090E0B30157
:101470000E941A0DE0CF0C151D0539F49A819633A0
:1014800018F4953311F424FE81E390E04BC08A8177
:10149000813309F00F7E90E0B3010E941A0D99206C
:1014A000A1F08EE290E0B3010E941A0D12E0E1E09B
:1014B000F0E0EC0FFD1FE10FF11D1F5F808190E058
:1014C000B3010E941A0D9A9491F744FC03C085E67B
:1014D00090E002C085E490E0B3010E941A0DD7FCB1
:1014E00005C0C114D10441F404FF06C0D094C194D6
:1014F000D108D3948DE201C08BE290E0B3010E9449
:101500001A0D80E305C08F5F26EF3FEFC20ED31E9A
:101510003AE0C316D104BCF790E0B3010E941A0D63
:10152000C601C096B3010E941A0DCC84DD8452C15D
:10153000933631F0933799F0933509F059C023C0B1
:10154000F601808189835E010894A11CB11C22E010
:1015500030E0C20ED31E21E0E22EF12C12C0F601C3
:10156000A080B18016FD03C06FEF7FEF02C0692D30
:1015700070E022E030E0C20ED31EC5010E940F0DC4
:101580007C011F7713C0F601A080B18016FD03C057
:101590006FEF7FEF02C0692D70E022E030E0C20EF5
:1015A000D31EC5010E94040D7C01106813FF07C003
:1015B0001BC080E290E0B3010E941A0D8A94882D2E
:1015C00090E0E816F906A8F30FC0F50117FD859124
:1015D00017FF81915F0190E0B3010E941A0D811005
:1015E0008A940894E108F108E114F10471F7F2C05B
:1015F000943611F0993689F517FF08C0F60120815D
:1016000031814281538184E090E00AC0F6018081FB
:1016100091819C01442737FD4095542F82E090E052
:10162000C80ED91E9FE6F92EF12257FF09C050952A
:101630004095309521953F4F4F4F5F4F90E8F92AE5
:10164000CA01B901AE014F5F5F4F2AE030E00E944E
:101650006A0DE82EE889EE1A41C0953721F41F7E05
:101660002AE030E01CC0197F9F3661F0903720F4EB
:10167000983509F0B2C00FC0903739F0983709F0AB
:10168000ACC004C028E030E00AC0106114FD146052
:1016900020E130E004C014FD166020E132E017FFC5
:1016A00008C0F601608171818281938144E050E03D
:1016B00008C0F60180819181BC0180E090E042E0A9
:1016C00050E0C40ED51EAE014F5F5F4F0E946A0D01
:1016D000E82E5889E51A8FE7F82EF122F6FE0BC0A6
:1016E0008EEFF822E91438F4F4FE07C0F2FC05C0CE
:1016F0009FEEF92202C01E2D01C0192DF4FE0DC06F
:10170000FE01EE0DF11D8081803319F4E9EEFE2219
:1017100008C01F5FF2FE05C003C08F2D867809F058
:101720001F5F0F2DF3FC14C0F0FE0FC0181510F052
:101730009E2C0BC09E2C980C911A182D06C080E28E
:1017400090E0B3010E941A0D1F5F1815C0F304C08A
:10175000181510F4811A01C0882404FF0FC080E31B
:1017600090E0B3010E941A0D02FF1DC001FD03C0ED
:1017700088E790E00EC088E590E00BC0802F867867
:1017800091F001FF02C08BE201C080E2F7FC8DE224
:1017900090E0B3010E941A0D06C080E390E0B3010F
:1017A0000E941A0D9A94E914C0F3EA94E1E0F0E083
:1017B000EC0FFD1FEE0DF11D808190E0B3010E9442
:1017C0001A0DEE2091F706C080E290E0B3010E946E
:1017D0001A0D8A948820C1F799CCF301668177812C
:1017E000CB016196E2E10C94110C2F923F924F9243
:1017F0005F926F927F928F929F92AF92BF92CF92A1
:10180000DF92EF92FF920F931F93CF93DF93CDB7A9
:10181000DEB7CA1BDB0B0FB6F894DEBF0FBECDBF21
:1018200009942A88398848885F846E847D848C84F2
:101830009B84AA84B984C884DF80EE80FD800C81FB
:101840001B81AA81B981CE0FD11D0FB6F894DEBFDE
:101850000FBECDBFED010895283008F027E03327F3
:10186000DA01990F311D87FD9160009661057105C0
:1018700039F432602E5F3D9330E32A95E1F7089505
:101880009F3F30F080387105610509F03C5F3C5F97
:101890003D93913008F08068911DDF93CF931F93A3
:1018A0000F93FF92EF92192F987F9695E92F9695B7
:1018B0009695E90FFF27E653FF4F99273327EE242C
:1018C000FF24A701E70105900894079428F4360F38
:1018D000E71EF81E491F511D660F771F881F991FAD
:1018E0000694A1F70590079428F4E70EF81E491F07
:1018F000561FC11D770F881F991F661F0694A1F7F9
:101900000590079428F4F80E491F561FC71FD11DD4
:10191000880F991F661F771F0694A1F705900794FB
:1019200020F4490F561FC71FD81F990F661F771F36
:10193000881F0694A9F784911095177041F0D695E9
:10194000C79557954795F794E7941A95C1F7E0E73F
:10195000F0E06894159015913591659195910590F9
:101960007FE27395E118F10A430B560BC90BD009BE
:10197000C0F7E10CF11E431F561FC91FD01D7EF496
:10198000703311F48A95E6CFE894015030F0080FD7
:101990000AF40027021708F4202F2395022F7A3328
:1019A00028F079E37D932A95E9F710C07D932A9575
:1019B00089F6069497956795379517951794E118CA
:1019C000F10A430B560BC90BD00998F023957E9171
:1019D00073957A3308F070E37C932013B8F77E9107
:1019E00070617D9330F0839571E37D9370E32A9568
:1019F000E1F71124EF90FF900F911F91CF91DF91AC
:101A0000992787FD90950895FC01059061507040DD
:101A10000110D8F7809590958E0F9F1F0895FC01B7
:101A20006150704001900110D8F7809590958E0F0D
:101A30009F1F08950F931F93CF93DF938C01EB01AA
:101A40008B8181FF1BC082FF0DC02E813F818C8165
:101A50009D812817390764F4E881F9810193F9839E
:101A6000E88306C0E885F985802F0995892B31F434
:101A70008E819F8101969F838E8302C00FEF1FEF9F
:101A8000C801DF91CF911F910F910895AEE0B0E0B2
:101A9000ECE4FDE00C94030C0D891E8986E08C8338
:101AA0001A8309838FEF9FE79E838D839E01275EB4
:101AB0003F4FCE0101966F89788DA9010E946E0873
:101AC0002F813885020F131FF80110822E96E4E053
:101AD0000C941F0CFA01AA27283051F1203181F112
:101AE000E8946F936E7F6E5F7F4F8F4F9F4FAF4F26
:101AF000B1E03ED0B4E03CD0670F781F891F9A1F39
:101B0000A11D680F791F8A1F911DA11D6A0F711DEC
:101B1000811D911DA11D20D009F468943F912AE0F8
:101B2000269F11243019305D3193DEF6CF010895E0
:101B3000462F4770405D4193B3E00FD0C9F7F6CF11
:101B4000462F4F70405D4A3318F0495D31FD4052D9
:101B5000419302D0A9F7EACFB4E0A695979587956F
:101B600077956795BA95C9F700976105710508954E
:101B70009B01AC010A2E06945795479537952795FA
:101B8000BA95C9F7620F731F841F951FA01D089592
:041B9000F894FFCFF7
:101B940057696E6465724D616368696E65562E326D
:101BA400003E0053746172740053657474696E6707
:101BB40073002000737461727400442E6669723D70
:101BC400252E34666D6D004C756E672E626F623D16
:101BD400256C756D6D004E722E73703D256C75000D
:101BE400436F65662E64703D252E32666D6D004E22
:101BF40072426F62696E2F733D252E326600427504
:101C0400746F6E756C203D20256400052C01000066
:101C1400B411000052499D3A0000803F0000003F8B
:00000001FF
