S00F000057696E646572322E737265637A
S11300000C9434000C9451000C9451000C94510045
S11300100C9451000C9451000C9451000C94510018
S11300200C9451000C9451000C9451000C94510008
S11300300C9451000C9451000C9451000C945100F8
S11300400C9451000C9451000C9451000C945100E8
S11300500C9451000C9451000C9451000C945100D8
S11300600C9451000C94510011241FBECFEFD8E022
S1130070DEBFCDBF11E0A0E0B1E0EAEDFCE002C0DC
S113008005900D92A433B107D9F711E0A4E3B1E0D0
S113009001C01D92A636B107E1F70E9409020C9433
S11300A06B060C940000806480937C0085E38A9541
S11300B0F1F7EAE7F0E0808180648083808184FF47
S11300C0FDCFEAE7F0E080818061808320917800B1
S11300D030917900822F932F089580E00E9453007D
S11300E023E0893E920704F5823391051CF420E055
S11300F030E01CC08A3F91051CF421E030E016C0BA
S113010021E0823C92071CF422E030E00FC022E0A0
S11301108A3892071CF423E030E008C082559340EB
S11301201CF424E030E002C025E030E0822F932F5D
S11301300895282F662331F0EBE2F0E0808181609E
S1130140808305C0EBE2F0E080818E7F80832223F0
S113015034F4EBE2F0E080818068808305C0EBE258
S1130160F0E080818F778083922F26FF06C0EBE238
S1130170F0E080818064808305C0EBE2F0E0808160
S11301808F7B808395FF06C0EBE2F0E08081806284
S1130190808305C0EBE2F0E080818F7D808394FF53
S11301A006C0EBE2F0E080818061808305C0EBE271
S11301B0F0E080818F7E808300C0EBE2F0E08081FC
S11301C08460808382E08A95F1F700C080818B7F10
S11301D0808393FF04C080818068808305C0EBE244
S11301E0F0E080818F77808392FF06C0EBE2F0E03D
S11301F080818064808305C0EBE2F0E080818F7BA6
S1130200808391FF06C0EBE2F0E08081806280830E
S113021005C0EBE2F0E080818F7D808390FF06C013
S1130220EBE2F0E080818061808305C0EBE2F0E0E6
S113023080818F7E808300C0EBE2F0E08081846067
S1130240808392E09A95F1F700C080818B7F808350
S113025080818068808380818064808380818062E3
S11302608083808180618083662349F4243038F45C
S11302708FE999E10197F1F700C00000089595ED29
S11302809A95F1F70000089561E00E94990008959D
S1130290CF93DF93FC018081882339F0EF010E9422
S11302A04401898121968823D1F7DF91CF91089564
S11302B060E00E949900089581E00E945801089529
S11302C080580E9458010895EAE2F0E08081846039
S11302D08083808181608083808180688083808145
S11302E08064808380818062808380818061808358
S11302F0EBE2F0E080818B7F808380818E7F80833E
S11303008081806880838081806480838081806232
S113031080838081806180838FE59AEE0197F1F775
S113032000C0000080818F77808380818F7B8083F1
S113033000C080818460808392E09A95F1F700C0C8
S113034080818B7F80838FE090E40197F1F700C078
S1130350000080818460808392E09A95F1F700C068
S113036080818B7F80838FE891E00197F1F700C053
S1130370000080818460808392E09A95F1F700C048
S113038080818B7F808385ED8A95F1F700008081E1
S11303908F7E808300C080818460808392E09A9500
S11303A0F1F700C080818B7F808385ED8A95F1F71A
S11303B0000080818F7E808300C080818460808380
S11303C092E09A95F1F700C080818B7F808382E070
S11303D08A95F1F700C080818068808300C08081A5
S11303E08460808392E09A95F1F700C080818B7FCE
S11303F0808385ED8A95F1F7000088E00E9458011A
S11304000E945C0186E00E9458018CE00E94580121
S113041008954F925F926F927F928F929F92AF92C4
S1130420BF92CF92DF92EF92FF920F931F93CF93DD
S1130430DF9314B815B817B818B8AAE2B0E01C9244
S11304401BB814BC15BC16BC17BC18BC1092800099
S113045010928100109285001092840010928700FF
S113046010928600109289001092880010928B00DE
S113047010928A001092B6001092B0001092B1004F
S11304801092B2001092B3001092B40010926E0059
S113049010926F0010927000109269001DBA1092B1
S11304A068001092C10080E880BFEBE7F0E01082A2
S11304B010927F0010927E0080E480937C0084E898
S11304C080937A0010821CBC1092BC008FEF8C9336
S11304D00E94640180E091E00E94480128EE33E02C
S11304E040E951E0CA010197F1F721503040D1F7BA
S11304F00E945C0180E00E94600181E191E00E9421
S1130500480181E00E94600182E291E00E9448017A
S113051081E40E94600189E291E00E94480103E1C4
S113052011E00F2EF1E1EF2EF1E0FF2EF02D0F2E52
S1130530F0E4CF2EFCE9DF2EF02D0E946D00EC01DB
S11305408230910569F480E00E946001C8010E9434
S1130550480180E40E946001C7010E9448010FC065
S11305608130910561F480E40E946001C8010E9419
S1130570480180E00E946001C7010E944801C60151
S11305800197F1F7209711F02497B9F60E945C01C6
S1130590C4E3D1E005E111E066247724689461F8AE
S11305A044245524689442F80F2EF3E0CF2EDD2422
S11305B0F02D0F2EF5E0AF2EBB24F02D88249924C6
S11305C083940F2EF0E2EF2EFEE4FF2EF02D0E9416
S11305D05C010E946D008230910509F459C083309A
S11305E0910534F4009779F0019709F095C039C06A
S11305F08430910509F463C084309105DCF00597DB
S113060009F08AC073C000D000D000D0EDB7FEB7A7
S11306103196D183C08313830283158214820E948E
S113062093038DB79EB706960FB6F8949EBF0FBE80
S11306308DBF72C000D000D000D0EDB7FEB73196A8
S1130640D183C08313830283D582C4820E9493031F
S11306508DB79EB706960FB6F8949EBF0FBE8DBF9A
S11306605BC000D000D000D0EDB7FEB73196D18387
S1130670C08313830283958284820E9493038DB77F
S11306809EB706960FB6F8949EBF0FBE8DBF44C0AA
S113069000D000D000D0EDB7FEB73196D183C0832F
S11306A013830283758264820E9493038DB79EB77D
S11306B006960FB6F8949EBF0FBE8DBF2DC000D016
S11306C000D000D0EDB7FEB73196D183C083138339
S11306D00283558244820E9493038DB79EB7069687
S11306E00FB6F8949EBF0FBE8DBF16C000D000D0C9
S11306F000D0EDB7FEB73196D183C0831383028354
S1130700B582A4820E9493038DB79EB706960FB656
S1130710F8949EBF0FBE8DBFCE010E944801C70151
S11307200197F1F754CFAEE0B0E0E9E9F3E00C94BF
S113073042060D891E8986E08C831A8309838FEF14
S11307409FE79E838D839E01275E3F4FCE010196D6
S11307506F89788DA9010E94B7032F813885020F14
S1130760131FF80110822E96E4E00C945E06ABE0B1
S1130770B0E0EDEBF3E00C9434063C012B015A019C
S1130780FC0117821682838181FD03C06FEF7FEF26
S1130790C6C19AE0892E1E010894211C311CF30164
S11307A02381F20123FD859123FF81912F01882369
S11307B009F4B2C1853239F423FD859123FF819177
S11307C02F01853229F490E0B3010E94AA05E7CFF6
S11307D0982FFF24EE249924FFE1FF15D0F09B32DB
S11307E069F09C3228F4903259F0933291F40EC09F
S11307F09D3249F0903369F441E024C052E0F52A77
S113080084E0F82A28C098E0F92A25C0E0E1FE2A0D
S113081022C0F7FC29C0892F80538A3070F4F6FE79
S113082005C0989C902C1124980E15C0E89CE02CCF
S11308301124E80EF0E2FF2A0EC09E3229F4F6FCE1
S11308406BC140E4F42A07C09C3619F450E8F52A39
S113085002C0983649F4F20123FD959123FF91914A
S11308602F01992309F0B8CF892F8554833018F0CC
S11308708052833038F444E050E0A40EB51E5FE3A8
S113088059830FC0933631F0933779F0933509F0DB
S113089056C020C0F5018081898342E050E0A40E57
S11308A0B51E610101E010E012C0F501C080D180E5
S11308B0F6FC03C06FEF7FEF02C0692D70E042E0E9
S11308C050E0A40EB51EC6010E949F058C015FE78F
S11308D0F52214C0F501C080D180F6FC03C06FEF8F
S11308E07FEF02C0692D70E042E050E0A40EB51E17
S11308F0C6010E9494058C0150E8F52AF3FE07C056
S11309001AC080E290E0B3010E94AA05EA948E2DF9
S113091090E008171907A8F30EC0F601F7FC8591BB
S1130920F7FE81916F0190E0B3010E94AA05E110E6
S1130930EA94015010400115110579F7EAC0943684
S113094011F0993669F5F7FE08C0F501208131816F
S11309504281538184E090E00AC0F5018081918155
S11309609C01442737FD4095542F82E090E0A80E67
S1130970B91E9FE6F92257FF09C05095409530955E
S113098021953F4F4F4F5F4FE0E8FE2ACA01B9015E
S1130990A1012AE030E00E94D605D82ED21840C02A
S11309A0953729F41F2D1F7E2AE030E01DC01F2D2E
S11309B0197F9F3661F0903720F4983509F0ACC068
S11309C00FC0903739F0983709F0A6C004C028E06A
S11309D030E00AC0106114FD146020E130E004C06E
S11309E014FD166020E132E017FF08C0F5016081B4
S11309F071818281938144E050E008C0F5018081D7
S1130A009181BC0180E090E042E050E0A40EB51E6C
S1130A10A1010E94D605D82ED2188FE7F82EF12214
S1130A20F6FE0BC05EEFF522D91438F4F4FE07C0CD
S1130A30F2FC05C08FEEF82202C01D2D01C0192D55
S1130A40F4FE0DC0FE01ED0DF11D8081803319F41B
S1130A5099EEF92208C01F5FF2FE05C003C08F2D76
S1130A60867809F01F5F0F2DF3FC14C0F0FE0FC051
S1130A701E1510F09D2C0BC09D2C9E0C911A1E2D42
S1130A8006C080E290E0B3010E94AA051F5F1E1514
S1130A90C0F304C01E1510F4E11A01C0EE2404FFD3
S1130AA00FC080E390E0B3010E94AA0502FF1DC0BD
S1130AB001FD03C088E790E00EC088E590E00BC01C
S1130AC0802F867891F001FF02C08BE201C080E2A2
S1130AD0F7FC8DE290E0B3010E94AA0506C080E312
S1130AE090E0B3010E94AA059A94D914C0F3DA9451
S1130AF0F101ED0DF11D808190E0B3010E94AA0582
S1130B00DD20A9F706C080E290E0B3010E94AA05A7
S1130B10EA94EE20C1F743CEF30166817781CB01DD
S1130B202B96E2E10C945006FC0105906150704054
S1130B300110D8F7809590958E0F9F1F0895FC01A2
S1130B406150704001900110D8F7809590958E0FF8
S1130B509F1F08950F931F93CF93DF938C01EB0195
S1130B608B8181FF1BC082FF0DC02E813F818C8150
S1130B709D812817390764F4E881F9810193F98389
S1130B80E88306C0E885F985802F0995892B31F41F
S1130B908E819F8101969F838E8302C00FEF1FEF8A
S1130BA0C801DF91CF911F910F910895FA01AA27EF
S1130BB0283051F1203181F1E8946F936E7F6E5F9C
S1130BC07F4F8F4F9F4FAF4FB1E03ED0B4E03CD04A
S1130BD0670F781F891F9A1FA11D680F791F8A1F2D
S1130BE0911DA11D6A0F711D811D911DA11D20D094
S1130BF009F468943F912AE0269F11243019305D4E
S1130C003193DEF6CF010895462F4770405D41933E
S1130C10B3E00FD0C9F7F6CF462F4F70405D4A338B
S1130C2018F0495D31FD4052419302D0A9F7EACF53
S1130C30B4E0A6959795879577956795BA95C9F782
S1130C4000976105710508959B01AC010A2E069475
S1130C505795479537952795BA95C9F7620F731F2E
S1130C60841F951FA01D08952F923F924F925F926B
S1130C706F927F928F929F92AF92BF92CF92DF92A8
S1130C80EF92FF920F931F93CF93DF93CDB7DEB70D
S1130C90CA1BDB0B0FB6F894DEBF0FBECDBF0994A1
S1130CA02A88398848885F846E847D848C849B84F8
S1130CB0AA84B984C884DF80EE80FD800C811B8106
S1130CC0AA81B981CE0FD11D0FB6F894DEBF0FBE35
S10D0CD0CDBFED010895F894FFCFA5
S1130CDA57696E6465724D616368696E65562E3232
S1130CEA003E0020004275746F6E756C203D20250D
S1130CFA6400205374617274002053657474696EBD
S1070D0A6773000007
S9030000FC
