:100000000C9434000C9451000C9451000C94510049
:100010000C9451000C9451000C9451000C9451001C
:100020000C9451000C9451000C9451000C9451000C
:100030000C9451000C9451000C9451000C945100FC
:100040000C9451000C9451000C9451000C945100EC
:100050000C9451000C9451000C9451000C945100DC
:100060000C9451000C94510011241FBECFEFD8E026
:10007000DEBFCDBF11E0A0E0B1E0E4E9F7E002C0EF
:1000800005900D92A035B107D9F711E0A0E5B1E0D8
:1000900001C01D92A438B107E1F70E9414020C942C
:1000A000C8030C940000806480937C0085E38A95EB
:1000B000F1F7EAE7F0E0808180648083808184FF4B
:1000C000FDCFEAE7F0E080818061808320917800B5
:1000D00030917900822F932F089580E00E94530081
:1000E00023E0893E920704F5823391051CF420E059
:1000F00030E01CC08A3F91051CF421E030E016C0BE
:1001000021E0823C92071CF422E030E00FC022E0A4
:100110008A3892071CF423E030E008C082559340EF
:100120001CF424E030E002C025E030E0822F932F61
:100130000895282F662331F0EBE2F0E080818160A2
:10014000808305C0EBE2F0E080818E7F80832223F4
:1001500034F4EBE2F0E080818068808305C0EBE25C
:10016000F0E080818F778083922F26FF06C0EBE23C
:10017000F0E080818064808305C0EBE2F0E0808164
:100180008F7B808395FF06C0EBE2F0E08081806288
:10019000808305C0EBE2F0E080818F7D808394FF57
:1001A00006C0EBE2F0E080818061808305C0EBE275
:1001B000F0E080818F7E808300C0EBE2F0E0808100
:1001C0008460808382E08A95F1F700C080818B7F14
:1001D000808393FF04C080818068808305C0EBE248
:1001E000F0E080818F77808392FF06C0EBE2F0E041
:1001F00080818064808305C0EBE2F0E080818F7BAA
:10020000808391FF06C0EBE2F0E080818062808312
:1002100005C0EBE2F0E080818F7D808390FF06C017
:10022000EBE2F0E080818061808305C0EBE2F0E0EA
:1002300080818F7E808300C0EBE2F0E0808184606B
:10024000808392E09A95F1F700C080818B7F808354
:1002500080818068808380818064808380818062E7
:100260008083808180618083662349F4243038F460
:100270008FE999E10197F1F700C00000089595ED2D
:100280009A95F1F70000089561E00E9499000895A1
:10029000CF93DF93FC018081882339F0EF010E9426
:1002A0004401898121968823D1F7DF91CF91089568
:1002B00060E00E949900089581E00E94580108952D
:1002C00080580E94580108950F931F938B010E943C
:1002D0006001C8010E9448011F910F910895EAE250
:1002E000F0E0808184608083808181608083808170
:1002F0008068808380818064808380818062808345
:10030000808180618083EBE2F0E080818B7F80835D
:1003100080818E7F808380818068808380818064FB
:1003200080838081806280838081806180838FE58B
:100330009AEE0197F1F700C0000080818F778083EB
:1003400080818F7B808300C080818460808392E085
:100350009A95F1F700C080818B7F80838FE090E4D5
:100360000197F1F700C0000080818460808392E0F3
:100370009A95F1F700C080818B7F80838FE891E0B0
:100380000197F1F700C0000080818460808392E0D3
:100390009A95F1F700C080818B7F808385ED8A95E7
:1003A000F1F7000080818F7E808300C080818460AF
:1003B000808392E09A95F1F700C080818B7F8083E3
:1003C00085ED8A95F1F7000080818F7E808300C0E3
:1003D00080818460808392E09A95F1F700C08081EB
:1003E0008B7F808382E08A95F1F700C080818068EE
:1003F000808300C080818460808392E09A95F1F7C9
:1004000000C080818B7F808385ED8A95F1F70000A5
:1004100088E00E9458010E945C0186E00E94580119
:100420008CE00E94580108952F923F924F925F9264
:100430006F927F928F929F92AF92BF92CF92DF92F4
:10044000EF92FF920F931F93CF93DF9314B815B8D9
:1004500017B818B8AAE2B0E01C921BB814BC15BCBF
:1004600016BC17BC18BC109280001092810010922C
:1004700085001092840010928700109286001092DE
:1004800089001092880010928B0010928A001092BE
:10049000B6001092B0001092B1001092B20010920B
:1004A000B3001092B40010926E0010926F00109280
:1004B0007000109269001DBA109268001092C1007D
:1004C00080E880BFEBE7F0E0108210927F0010928E
:1004D0007E0080E480937C0084E880937A00108220
:1004E0001CBC1092BC008FEF8C930E946F010E9485
:1004F0005C0180E091E00E94480180E49CE9019762
:10050000F1F70E945C010F2EF1E1EF2EF1E0FF2EDA
:10051000F02D80E090E0B7010E94640182E090E05D
:1005200063E171E00E94640182E490E069E171E0BE
:100530000E94640110E000E0C0E4DCE9DD24D39413
:100540000F2EF2E2AF2EF1E0BF2EF02D01C01D2DD7
:100550000E946D0080934F01853011F4102F02C06E
:100560001123B1F7FE013197F1F7853089F382301D
:1005700061F480E090E0B5010E94640180E490E0C5
:10058000B7010E946401D092820180914F018130B5
:1005900061F480E090E0B7010E94640180E490E0A3
:1005A000B5010E9464010093820180914F0188236C
:1005B00011F0843061F60E945C0185E080934F0168
:1005C0001092820111E00F2EF2E2CF2EF1E0DF2E29
:1005D000F02DC0E5D1E00F2EFCE2AF2EF1E0BF2EF2
:1005E000F02D08E00F2EF4E38F2EF1E09F2EF02D7A
:1005F0000F2EFAE07F2EF02D0F2EF4E24F2EF1E0B9
:100600005F2EF02D0F2EFEE32F2EF1E03F2EF02D6A
:100610000F2EF9E06F2EF02D0E946D0080934F0198
:10062000823071F480918201882319F41093820141
:1006300007C080918301833018F48F5F809383011A
:1006400080914F01813071F480918201813019F4E1
:100650001092820107C080918301882319F0815094
:10066000809383010E945C0180918201882359F468
:1006700080E090E0B7010E94640180E490E0B60160
:100680000E9464010AC080E090E0B6010E9464010B
:1006900080E490E0B7010E94640180918301813081
:1006A00009F1813030F08230B1F1833009F065C05A
:1006B0004BC0DE01F201802F01900D928150E1F7D5
:1006C00082E090E0BE010E946401DE01F501802F0E
:1006D00001900D928150E1F782E490E0BE010E940A
:1006E00064014BC0DE01F501802F01900D92815015
:1006F000E1F782E090E0BE010E946401DE01F401B6
:10070000872D01900D928150E1F782E490E0BE01C7
:100710000E94640132C0DE01F401872D01900D9228
:100720008150E1F782E090E0BE010E946401DE01A9
:10073000F101802F01900D928150E1F782E490E069
:10074000BE010E94640119C0DE01F101802F0190F9
:100750000D928150E1F782E090E0BE010E946401B9
:10076000DE01E6E4F1E0862D01900D928150E1F783
:1007700082E490E0BE010E9464010E946D008093BB
:100780004F01E0EAFFE03197F1F78530B1F744CF50
:04079000F894FFCF0B
:1007940057696E6465724D616368696E65562E3281
:1007A400003E0053746172740053657474696E671B
:1007B400730020004469616D2E733D004C756E67B3
:1007C4002E623D004E722E73706972653D00436F58
:1007D40065662E643D00426F62696E2F733D0005AD
:00000001FF
