:100000000C9434000C943E000C943E000C943E0082
:100010000C943E000C943E000C943E000C943E0068
:100020000C943E000C943E000C943E000C943E0058
:100030000C943E000C943E000C943E000C943E0048
:100040000C943E000C943E000C943E000C943E0038
:100050000C943E000C943E000C943E000C943E0028
:100060000C943E000C943E0011241FBECFEFD8E04C
:10007000DEBFCDBF0E9490010C948A060C94000054
:10008000DF93CF93CDB7DEB76A970FB6F894DEBF94
:100090000FBECDBF898FECE7F0E0898D806480834F
:1000A00080E090E0A0E2B1E48D8B9E8BAF8BB88FA7
:1000B0006D897E898F89988D2BEA3AEA4AEA50E465
:1000C0000E947303DC01CB01898B9A8BAB8BBC8BB9
:1000D00069897A898B899C8920E030E040E85FE378
:1000E0000E94620288231CF481E0888B91C0698998
:1000F0007A898B899C8920E030E04FE753E40E94A5
:100100006F0318160CF07BC06D897E898F89988DDE
:1001100020E030E04AE754E40E946602DC01CB01B3
:100120008C879D87AE87BF876C857D858E859F85F3
:1001300020E030E04AE755E40E947303DC01CB0184
:1001400088879987AA87BB87688579858A859B85F3
:1001500020E030E040E85FE30E94620288232CF454
:1001600081E090E09F838E833FC0688579858A8592
:100170009B8520E03FEF4FE757E40E946F0318167E
:100180004CF56C857D858E859F8520E030E040E2D2
:1001900051E40E947303DC01CB01BC01CD010E943C
:1001A000CE02DC01CB019F838E830FC080E991E0FA
:1001B0009D838C838C819D810197F1F79D838C8336
:1001C0008E819F8101979F838E838E819F8100976F
:1001D00069F724C0688579858A859B850E94CE024F
:1001E000DC01CB019F838E838E819F819B838A83D9
:1001F0008A819B810197F1F79B838A830FC069896C
:100200007A898B899C890E94CE02DC01CB01888B84
:100210008889898389818A95F1F78983AAE7B0E083
:10022000EAE7F0E0808180648C93EAE7F0E0808187
:10023000882F90E0807190701A8E009711F481E001
:100240008A8F8A8D882389F7AAE7B0E0EAE7F0E091
:10025000808180618C93E8E7F0E0808191816A96EB
:100260000FB6F894DEBF0FBECDBFCF91DF910895DA
:10027000DF93CF9300D000D0CDB7DEB71A821982BA
:1002800080E00E9440009A83898389819A8123E0DB
:10029000893E92072CF085E090E09C838B8337C0E9
:1002A00089819A81823391051CF41C821B822FC0A4
:1002B00089819A818A3F91052CF481E090E09C83AA
:1002C0008B8325C089819A8121E0823C92072CF49E
:1002D00082E090E09C838B831AC089819A8122E01E
:1002E0008A3892072CF483E090E09C838B830FC0C4
:1002F00089819A8123E0823592072CF484E090E092
:100300009C838B8304C085E090E09C838B838B81EE
:100310009C810F900F900F900F90CF91DF910895D7
:10032000DF93CF9300D0CDB7DEB7E4E2F0E01082E8
:10033000E5E2F0E01082E7E2F0E01082E8E2F0E0CF
:100340001082EAE2F0E01082EBE2F0E01082E4E4F6
:10035000F0E01082E5E4F0E01082E6E4F0E01082E4
:10036000E7E4F0E01082E8E4F0E01082E0E8F0E09A
:100370001082E1E8F0E01082E5E8F0E01082E4E8C5
:10038000F0E01082E7E8F0E01082E6E8F0E01082AA
:10039000E9E8F0E01082E8E8F0E01082EBE8F0E055
:1003A0001082EAE8F0E01082E6EBF0E01082E0EB89
:1003B000F0E01082E1EBF0E01082E2EBF0E010827E
:1003C000E3EBF0E01082E4EBF0E01082EEE6F0E028
:1003D0001082EFE6F0E01082E0E7F0E01082E9E65C
:1003E000F0E01082EDE3F0E01082E8E6F0E0108249
:1003F000E1ECF0E01082E0E5F0E080E88083EBE7FC
:10040000F0E01082EFE7F0E01082EEE7F0E010821B
:10041000ECE7F0E080E48083EAE7F0E084E88083C2
:10042000EBE7F0E01082ECE4F0E01082ECEBF0E0BF
:100430001082EAE2F0E08FEF80830E9438019A8315
:10044000898389819A818230910569F189819A81B4
:100450008330910554F489819A810097B1F08981A4
:100460009A8181309105D1F0E4CF89819A818430DD
:100470009105F1F089819A818430910554F0898148
:100480009A8185309105C9F0D4CFEBE2F0E010827B
:10049000D0CFEBE2F0E083E08083CBCFEBE2F0E083
:1004A00081E08083C6CFEBE2F0E082E08083C1CFC1
:1004B000EBE2F0E084E08083BCCFEBE2F0E085E0AB
:1004C0008083B7CF97D008F481E008950CD0CDC0D9
:1004D000C5D040F0BCD030F021F45F3F19F0AEC081
:1004E0005111F7C0B1C0D2D098F39923C9F3552365
:1004F000B1F3951B550BBB27AA2762177307840717
:1005000038F09F5F5F4F220F331F441FAA1FA9F3CC
:1005100033D00E2E3AF0E0E830D091505040E695BE
:10052000001CCAF729D0FE2F27D0660F771F881F1F
:10053000BB1F261737074807AB07B0E809F0BB0B0E
:10054000802DBF01FF2793585F4F2AF09E3F510532
:1005500068F074C0BEC05F3FECF3983EDCF3869554
:1005600077956795B795F7959F5FC9F7880F911DA8
:100570009695879597F90895E1E0660F771F881F94
:10058000BB1F621773078407BA0720F0621B730B47
:10059000840BBA0BEE1F88F7E09508957FD088F0A2
:1005A0009F5790F0B92F9927B751A0F0D1F0660F5F
:1005B000771F881F991F1AF0BA95C9F712C0B1307A
:1005C00081F086D0B1E0089583C0672F782F882707
:1005D000B85F39F0B93FCCF3869577956795B395B9
:1005E000D9F73EF490958095709561957F4F8F4F28
:1005F0009F4F0895990F0008550FAA0BE0E8FEEFF2
:1006000016161706E807F907C0F012161306E407D6
:10061000F50798F0621B730B840B950B39F40A26CF
:1006200061F0232B242B252B21F408950A2609F4AD
:10063000A140A6958FEF811D811D089597F99F67B1
:1006400080E870E060E008959FEF80EC089500245A
:100650000A941616170618060906089500240A9427
:1006600012161306140605060895092E0394000CAD
:1006700011F4882352F0BB0F40F4BF2B11F460FF3C
:1006800004C06F5F7F4F8F4F9F4F089557FD905865
:10069000440F551F59F05F3F71F04795880F97FB46
:1006A000991F61F09F3F79F0879508951216130600
:1006B0001406551FF2CF4695F1DF08C0161617062F
:1006C0001806991FF1CF8695710561050894089564
:1006D000E894BB2766277727CB0197F908958ADF2F
:1006E00008F48FEF08950BD0C0CFB1DF28F0B6DF4C
:1006F00018F0952309F0A2CFA7CF1124EACFC6DFC7
:10070000A0F3959FD1F3950F50E0551F629FF00124
:10071000729FBB27F00DB11D639FAA27F00DB11D7D
:10072000AA1F649F6627B00DA11D661F829F222706
:10073000B00DA11D621F739FB00DA11D621F839F8D
:10074000A00D611D221F749F3327A00D611D231F63
:10075000849F600D211D822F762F6A2F11249F57B1
:1007600050408AF0E1F088234AF0EE0FFF1FBB1FD4
:10077000661F771F881F91505040A9F79E3F510573
:1007800070F05CCFA6CF5F3FECF3983EDCF386952C
:1007900077956795B795F795E7959F5FC1F7FE2B1E
:1007A000880F911D9695879597F90895ABE0B0E075
:1007B000ECEDF3E00C9453063C012B015A01FC01D3
:1007C00017821682838181FD03C06FEF7FEFC6C160
:1007D0009AE0892E1E010894211C311CF30123810B
:1007E000F20123FD859123FF81912F01882309F4D4
:1007F000B2C1853239F423FD859123FF81912F0108
:10080000853229F490E0B3010E94C905E7CF982F03
:10081000FF24EE249924FFE1FF15D0F09B3269F00C
:100820009C3228F4903259F0933291F40EC09D32EC
:1008300049F0903369F441E024C052E0F52A84E0A5
:10084000F82A28C098E0F92A25C0E0E1FE2A22C053
:10085000F7FC29C0892F80538A3070F4F6FE05C05A
:10086000989C902C1124980E15C0E89CE02C112423
:10087000E80EF0E2FF2A0EC09E3229F4F6FC6BC1AE
:1008800040E4F42A07C09C3619F450E8F52A02C067
:10089000983649F4F20123FD959123FF91912F01A0
:1008A000992309F0B8CF892F8554833018F08052EE
:1008B000833038F444E050E0A40EB51E5FE3598362
:1008C0000FC0933631F0933779F0933509F056C065
:1008D00020C0F5018081898342E050E0A40EB51E5E
:1008E000610101E010E012C0F501C080D180F6FC8A
:1008F00003C06FEF7FEF02C0692D70E042E050E06F
:10090000A40EB51EC6010E94BE058C015FE7F5224C
:1009100014C0F501C080D180F6FC03C06FEF7FEFFB
:1009200002C0692D70E042E050E0A40EB51EC60181
:100930000E94B3058C0150E8F52AF3FE07C01AC0E7
:1009400080E290E0B3010E94C905EA948E2D90E008
:1009500008171907A8F30EC0F601F7FC8591F7FEFA
:1009600081916F0190E0B3010E94C905E110EA9402
:10097000015010400115110579F7EAC0943611F0C5
:10098000993669F5F7FE08C0F50120813181428171
:10099000538184E090E00AC0F501808191819C013F
:1009A000442737FD4095542F82E090E0A80EB91EF1
:1009B0009FE6F92257FF09C0509540953095219543
:1009C0003F4F4F4F5F4FE0E8FE2ACA01B901A10136
:1009D0002AE030E00E94F505D82ED21840C09537A5
:1009E00029F41F2D1F7E2AE030E01DC01F2D197F26
:1009F0009F3661F0903720F4983509F0ACC00FC0F5
:100A0000903739F0983709F0A6C004C028E030E0EC
:100A10000AC0106114FD146020E130E004C014FD30
:100A2000166020E132E017FF08C0F5016081718196
:100A30008281938144E050E008C0F501808191817A
:100A4000BC0180E090E042E050E0A40EB51EA101A0
:100A50000E94F505D82ED2188FE7F82EF122F6FE67
:100A60000BC05EEFF522D91438F4F4FE07C0F2FC97
:100A700005C08FEEF82202C01D2D01C0192DF4FE15
:100A80000DC0FE01ED0DF11D8081803319F499EE4A
:100A9000F92208C01F5FF2FE05C003C08F2D8678C3
:100AA00009F01F5F0F2DF3FC14C0F0FE0FC01E15E0
:100AB00010F09D2C0BC09D2C9E0C911A1E2D06C073
:100AC00080E290E0B3010E94C9051F5F1E15C0F3CC
:100AD00004C01E1510F4E11A01C0EE2404FF0FC07B
:100AE00080E390E0B3010E94C90502FF1DC001FD33
:100AF00003C088E790E00EC088E590E00BC0802F2F
:100B0000867891F001FF02C08BE201C080E2F7FC21
:100B10008DE290E0B3010E94C90506C080E390E039
:100B2000B3010E94C9059A94D914C0F3DA94F10173
:100B3000ED0DF11D808190E0B3010E94C905DD201B
:100B4000A9F706C080E290E0B3010E94C905EA94CB
:100B5000EE20C1F743CEF30166817781CB012B965E
:100B6000E2E10C946F06FC010590615070400110A9
:100B7000D8F7809590958E0F9F1F0895FC016150C6
:100B8000704001900110D8F7809590958E0F9F1FAF
:100B900008950F931F93CF93DF938C01EB018B810B
:100BA00081FF1BC082FF0DC02E813F818C819D8102
:100BB0002817390764F4E881F9810193F983E88300
:100BC00006C0E885F985802F0995892B31F48E813F
:100BD0009F8101969F838E8302C00FEF1FEFC80194
:100BE000DF91CF911F910F910895FA01AA27283024
:100BF00051F1203181F1E8946F936E7F6E5F7F4FEA
:100C00008F4F9F4FAF4FB1E03ED0B4E03CD0670F65
:100C1000781F891F9A1FA11D680F791F8A1F911DB8
:100C2000A11D6A0F711D811D911DA11D20D009F408
:100C300068943F912AE0269F11243019305D31934A
:100C4000DEF6CF010895462F4770405D4193B3E033
:100C50000FD0C9F7F6CF462F4F70405D4A3318F0DA
:100C6000495D31FD4052419302D0A9F7EACFB4E08B
:100C7000A6959795879577956795BA95C9F7009743
:100C80006105710508959B01AC010A2E06945795E4
:100C9000479537952795BA95C9F7620F731F841F3B
:100CA000951FA01D08952F923F924F925F926F92D1
:100CB0007F928F929F92AF92BF92CF92DF92EF92EC
:100CC000FF920F931F93CF93DF93CDB7DEB7CA1B6D
:100CD000DB0B0FB6F894DEBF0FBECDBF09942A8898
:100CE000398848885F846E847D848C849B84AA8440
:100CF000B984C884DF80EE80FD800C811B81AA81CD
:100D0000B981CE0FD11D0FB6F894DEBF0FBECDBF97
:080D1000ED010895F894FFCFF6
:00000001FF
